{
  "_format": "hh-sol-artifact-1",
  "contractName": "Voting",
  "sourceName": "contracts/Voting.sol",
  "abi": [
    {
      "inputs": [
        {
          "internalType": "string[]",
          "name": "candidateNames",
          "type": "string[]"
        }
      ],
      "stateMutability": "nonpayable",
      "type": "constructor"
    },
    {
      "anonymous": false,
      "inputs": [
        {
          "indexed": false,
          "internalType": "address",
          "name": "voter",
          "type": "address"
        },
        {
          "indexed": false,
          "internalType": "uint256",
          "name": "candidateId",
          "type": "uint256"
        }
      ],
      "name": "VoteCast",
      "type": "event"
    },
    {
      "anonymous": false,
      "inputs": [
        {
          "indexed": false,
          "internalType": "address",
          "name": "voter",
          "type": "address"
        }
      ],
      "name": "VoterRegistered",
      "type": "event"
    },
    {
      "anonymous": false,
      "inputs": [
        {
          "indexed": false,
          "internalType": "uint256",
          "name": "start",
          "type": "uint256"
        },
        {
          "indexed": false,
          "internalType": "uint256",
          "name": "end",
          "type": "uint256"
        }
      ],
      "name": "VotingPeriodSet",
      "type": "event"
    },
    {
      "inputs": [
        {
          "internalType": "string",
          "name": "name",
          "type": "string"
        }
      ],
      "name": "addCandidate",
      "outputs": [],
      "stateMutability": "nonpayable",
      "type": "function"
    },
    {
      "inputs": [],
      "name": "admin",
      "outputs": [
        {
          "internalType": "address",
          "name": "",
          "type": "address"
        }
      ],
      "stateMutability": "view",
      "type": "function"
    },
    {
      "inputs": [
        {
          "internalType": "uint256",
          "name": "",
          "type": "uint256"
        }
      ],
      "name": "candidates",
      "outputs": [
        {
          "internalType": "uint256",
          "name": "id",
          "type": "uint256"
        },
        {
          "internalType": "string",
          "name": "name",
          "type": "string"
        },
        {
          "internalType": "uint256",
          "name": "voteCount",
          "type": "uint256"
        }
      ],
      "stateMutability": "view",
      "type": "function"
    },
    {
      "inputs": [],
      "name": "candidatesCount",
      "outputs": [
        {
          "internalType": "uint256",
          "name": "",
          "type": "uint256"
        }
      ],
      "stateMutability": "view",
      "type": "function"
    },
    {
      "inputs": [
        {
          "internalType": "uint256",
          "name": "id",
          "type": "uint256"
        }
      ],
      "name": "getCandidate",
      "outputs": [
        {
          "internalType": "uint256",
          "name": "",
          "type": "uint256"
        },
        {
          "internalType": "string",
          "name": "",
          "type": "string"
        },
        {
          "internalType": "uint256",
          "name": "",
          "type": "uint256"
        }
      ],
      "stateMutability": "view",
      "type": "function"
    },
    {
      "inputs": [
        {
          "internalType": "address",
          "name": "voter",
          "type": "address"
        }
      ],
      "name": "registerVoter",
      "outputs": [],
      "stateMutability": "nonpayable",
      "type": "function"
    },
    {
      "inputs": [
        {
          "internalType": "uint256",
          "name": "start",
          "type": "uint256"
        },
        {
          "internalType": "uint256",
          "name": "end",
          "type": "uint256"
        }
      ],
      "name": "setVotingPeriod",
      "outputs": [],
      "stateMutability": "nonpayable",
      "type": "function"
    },
    {
      "inputs": [
        {
          "internalType": "uint256",
          "name": "candidateId",
          "type": "uint256"
        }
      ],
      "name": "vote",
      "outputs": [],
      "stateMutability": "nonpayable",
      "type": "function"
    },
    {
      "inputs": [
        {
          "internalType": "address",
          "name": "",
          "type": "address"
        }
      ],
      "name": "voters",
      "outputs": [
        {
          "internalType": "bool",
          "name": "isRegistered",
          "type": "bool"
        },
        {
          "internalType": "bool",
          "name": "hasVoted",
          "type": "bool"
        },
        {
          "internalType": "uint256",
          "name": "votedCandidateId",
          "type": "uint256"
        }
      ],
      "stateMutability": "view",
      "type": "function"
    },
    {
      "inputs": [],
      "name": "votingEnd",
      "outputs": [
        {
          "internalType": "uint256",
          "name": "",
          "type": "uint256"
        }
      ],
      "stateMutability": "view",
      "type": "function"
    },
    {
      "inputs": [],
      "name": "votingStart",
      "outputs": [
        {
          "internalType": "uint256",
          "name": "",
          "type": "uint256"
        }
      ],
      "stateMutability": "view",
      "type": "function"
    }
  ],
  "bytecode": "0x60806040523480156200001157600080fd5b5060405162001fb338038062001fb383398181016040528101906200003791906200046f565b336000806101000a81548173ffffffffffffffffffffffffffffffffffffffff021916908373ffffffffffffffffffffffffffffffffffffffff16021790555060005b8151811015620000c857620000b28282815181106200009e576200009d620004c0565b5b6020026020010151620000d060201b60201c565b8080620000bf9062000528565b9150506200007a565b505062000946565b60008054906101000a900473ffffffffffffffffffffffffffffffffffffffff1673ffffffffffffffffffffffffffffffffffffffff163373ffffffffffffffffffffffffffffffffffffffff161462000161576040517f08c379a00000000000000000000000000000000000000000000000000000000081526004016200015890620005fc565b60405180910390fd5b60036000815480929190620001769062000528565b9190505550604051806060016040528060035481526020018281526020016000815250600160006003548152602001908152602001600020600082015181600001556020820151816001019081620001cf91906200085f565b506040820151816002015590505050565b6000604051905090565b600080fd5b600080fd5b600080fd5b6000601f19601f8301169050919050565b7f4e487b7100000000000000000000000000000000000000000000000000000000600052604160045260246000fd5b6200024482620001f9565b810181811067ffffffffffffffff821117156200026657620002656200020a565b5b80604052505050565b60006200027b620001e0565b905062000289828262000239565b919050565b600067ffffffffffffffff821115620002ac57620002ab6200020a565b5b602082029050602081019050919050565b600080fd5b600080fd5b600067ffffffffffffffff821115620002e557620002e46200020a565b5b620002f082620001f9565b9050602081019050919050565b60005b838110156200031d57808201518184015260208101905062000300565b60008484015250505050565b6000620003406200033a84620002c7565b6200026f565b9050828152602081018484840111156200035f576200035e620002c2565b5b6200036c848285620002fd565b509392505050565b600082601f8301126200038c576200038b620001f4565b5b81516200039e84826020860162000329565b91505092915050565b6000620003be620003b8846200028e565b6200026f565b90508083825260208201905060208402830185811115620003e457620003e3620002bd565b5b835b818110156200043257805167ffffffffffffffff8111156200040d576200040c620001f4565b5b8086016200041c898262000374565b85526020850194505050602081019050620003e6565b5050509392505050565b600082601f830112620004545762000453620001f4565b5b815162000466848260208601620003a7565b91505092915050565b600060208284031215620004885762000487620001ea565b5b600082015167ffffffffffffffff811115620004a957620004a8620001ef565b5b620004b7848285016200043c565b91505092915050565b7f4e487b7100000000000000000000000000000000000000000000000000000000600052603260045260246000fd5b7f4e487b7100000000000000000000000000000000000000000000000000000000600052601160045260246000fd5b6000819050919050565b600062000535826200051e565b91507fffffffffffffffffffffffffffffffffffffffffffffffffffffffffffffffff82036200056a5762000569620004ef565b5b600182019050919050565b600082825260208201905092915050565b7f4f6e6c792061646d696e2063616e20706572666f726d2074686973206163746960008201527f6f6e000000000000000000000000000000000000000000000000000000000000602082015250565b6000620005e460228362000575565b9150620005f18262000586565b604082019050919050565b600060208201905081810360008301526200061781620005d5565b9050919050565b600081519050919050565b7f4e487b7100000000000000000000000000000000000000000000000000000000600052602260045260246000fd5b600060028204905060018216806200067157607f821691505b60208210810362000687576200068662000629565b5b50919050565b60008190508160005260206000209050919050565b60006020601f8301049050919050565b600082821b905092915050565b600060088302620006f17fffffffffffffffffffffffffffffffffffffffffffffffffffffffffffffffff82620006b2565b620006fd8683620006b2565b95508019841693508086168417925050509392505050565b6000819050919050565b6000620007406200073a62000734846200051e565b62000715565b6200051e565b9050919050565b6000819050919050565b6200075c836200071f565b620007746200076b8262000747565b848454620006bf565b825550505050565b600090565b6200078b6200077c565b6200079881848462000751565b505050565b5b81811015620007c057620007b460008262000781565b6001810190506200079e565b5050565b601f8211156200080f57620007d9816200068d565b620007e484620006a2565b81016020851015620007f4578190505b6200080c6200080385620006a2565b8301826200079d565b50505b505050565b600082821c905092915050565b6000620008346000198460080262000814565b1980831691505092915050565b60006200084f838362000821565b9150826002028217905092915050565b6200086a826200061e565b67ffffffffffffffff8111156200088657620008856200020a565b5b62000892825462000658565b6200089f828285620007c4565b600060209050601f831160018114620008d75760008415620008c2578287015190505b620008ce858262000841565b8655506200093e565b601f198416620008e7866200068d565b60005b828110156200091157848901518255600182019150602085019450602081019050620008ea565b868310156200093157848901516200092d601f89168262000821565b8355505b6001600288020188555050505b505050505050565b61165d80620009566000396000f3fe608060405234801561001057600080fd5b50600436106100a95760003560e01c806338db6dd31161007157806338db6dd31461016a578063462e91ec1461018657806385a38635146101a2578063a15a36c7146101c0578063a3ec138d146101dc578063f851a4401461020e576100a9565b80630121b93f146100ae578063101158af146100ca5780632d35a8a2146100e85780633477ee2e1461010657806335b8e82014610138575b600080fd5b6100c860048036038101906100c39190610b7c565b61022c565b005b6100d26104f9565b6040516100df9190610bb8565b60405180910390f35b6100f06104ff565b6040516100fd9190610bb8565b60405180910390f35b610120600480360381019061011b9190610b7c565b610505565b60405161012f93929190610c63565b60405180910390f35b610152600480360381019061014d9190610b7c565b6105b7565b60405161016193929190610c63565b60405180910390f35b610184600480360381019061017f9190610cff565b61069a565b005b6101a0600480360381019061019b9190610e61565b6108a0565b005b6101aa6109a9565b6040516101b79190610bb8565b60405180910390f35b6101da60048036038101906101d59190610eaa565b6109af565b005b6101f660048036038101906101f19190610cff565b610aca565b60405161020593929190610f05565b60405180910390f35b610216610b0e565b6040516102239190610f4b565b60405180910390f35b600260003373ffffffffffffffffffffffffffffffffffffffff1673ffffffffffffffffffffffffffffffffffffffff16815260200190815260200160002060000160009054906101000a900460ff166102bb576040517f08c379a00000000000000000000000000000000000000000000000000000000081526004016102b290610fb2565b60405180910390fd5b600260003373ffffffffffffffffffffffffffffffffffffffff1673ffffffffffffffffffffffffffffffffffffffff16815260200190815260200160002060000160019054906101000a900460ff161561034b576040517f08c379a00000000000000000000000000000000000000000000000000000000081526004016103429061101e565b60405180910390fd5b600454421015801561035f57506005544211155b61039e576040517f08c379a00000000000000000000000000000000000000000000000000000000081526004016103959061108a565b60405180910390fd5b6000811180156103b057506003548111155b6103ef576040517f08c379a00000000000000000000000000000000000000000000000000000000081526004016103e6906110f6565b60405180910390fd5b6001600260003373ffffffffffffffffffffffffffffffffffffffff1673ffffffffffffffffffffffffffffffffffffffff16815260200190815260200160002060000160016101000a81548160ff02191690831515021790555080600260003373ffffffffffffffffffffffffffffffffffffffff1673ffffffffffffffffffffffffffffffffffffffff168152602001908152602001600020600101819055506001600082815260200190815260200160002060020160008154809291906104b890611145565b91905055507fa36cc2bebb74db33e9f88110a07ef56e1b31b24b4c4f51b54b1664266e29f45b33826040516104ee92919061118d565b60405180910390a150565b60045481565b60035481565b600160205280600052604060002060009150905080600001549080600101805461052e906111e5565b80601f016020809104026020016040519081016040528092919081815260200182805461055a906111e5565b80156105a75780601f1061057c576101008083540402835291602001916105a7565b820191906000526020600020905b81548152906001019060200180831161058a57829003601f168201915b5050505050908060020154905083565b600060606000600160008581526020019081526020016000206000015460016000868152602001908152602001600020600101600160008781526020019081526020016000206002015481805461060d906111e5565b80601f0160208091040260200160405190810160405280929190818152602001828054610639906111e5565b80156106865780601f1061065b57610100808354040283529160200191610686565b820191906000526020600020905b81548152906001019060200180831161066957829003601f168201915b505050505091509250925092509193909250565b60008054906101000a900473ffffffffffffffffffffffffffffffffffffffff1673ffffffffffffffffffffffffffffffffffffffff163373ffffffffffffffffffffffffffffffffffffffff1614610728576040517f08c379a000000000000000000000000000000000000000000000000000000000815260040161071f90611288565b60405180910390fd5b600260008273ffffffffffffffffffffffffffffffffffffffff1673ffffffffffffffffffffffffffffffffffffffff16815260200190815260200160002060000160009054906101000a900460ff16156107b8576040517f08c379a00000000000000000000000000000000000000000000000000000000081526004016107af906112f4565b60405180910390fd5b60405180606001604052806001151581526020016000151581526020016000815250600260008373ffffffffffffffffffffffffffffffffffffffff1673ffffffffffffffffffffffffffffffffffffffff16815260200190815260200160002060008201518160000160006101000a81548160ff02191690831515021790555060208201518160000160016101000a81548160ff021916908315150217905550604082015181600101559050507fb6be2187d059cc2a55fe29e0e503b566e1e0f8c8780096e185429350acffd3dd816040516108959190610f4b565b60405180910390a150565b60008054906101000a900473ffffffffffffffffffffffffffffffffffffffff1673ffffffffffffffffffffffffffffffffffffffff163373ffffffffffffffffffffffffffffffffffffffff161461092e576040517f08c379a000000000000000000000000000000000000000000000000000000000815260040161092590611288565b60405180910390fd5b6003600081548092919061094190611145565b919050555060405180606001604052806003548152602001828152602001600081525060016000600354815260200190815260200160002060008201518160000155602082015181600101908161099891906114c0565b506040820151816002015590505050565b60055481565b60008054906101000a900473ffffffffffffffffffffffffffffffffffffffff1673ffffffffffffffffffffffffffffffffffffffff163373ffffffffffffffffffffffffffffffffffffffff1614610a3d576040517f08c379a0000000000000000000000000000000000000000000000000000000008152600401610a3490611288565b60405180910390fd5b808210610a7f576040517f08c379a0000000000000000000000000000000000000000000000000000000008152600401610a76906115de565b60405180910390fd5b81600481905550806005819055507f7e3f7f0708a84de9203036abaa450dccc85ad5ff52f78c170f3edb55cf5e88288282604051610abe9291906115fe565b60405180910390a15050565b60026020528060005260406000206000915090508060000160009054906101000a900460ff16908060000160019054906101000a900460ff16908060010154905083565b60008054906101000a900473ffffffffffffffffffffffffffffffffffffffff1681565b6000604051905090565b600080fd5b600080fd5b6000819050919050565b610b5981610b46565b8114610b6457600080fd5b50565b600081359050610b7681610b50565b92915050565b600060208284031215610b9257610b91610b3c565b5b6000610ba084828501610b67565b91505092915050565b610bb281610b46565b82525050565b6000602082019050610bcd6000830184610ba9565b92915050565b600081519050919050565b600082825260208201905092915050565b60005b83811015610c0d578082015181840152602081019050610bf2565b60008484015250505050565b6000601f19601f8301169050919050565b6000610c3582610bd3565b610c3f8185610bde565b9350610c4f818560208601610bef565b610c5881610c19565b840191505092915050565b6000606082019050610c786000830186610ba9565b8181036020830152610c8a8185610c2a565b9050610c996040830184610ba9565b949350505050565b600073ffffffffffffffffffffffffffffffffffffffff82169050919050565b6000610ccc82610ca1565b9050919050565b610cdc81610cc1565b8114610ce757600080fd5b50565b600081359050610cf981610cd3565b92915050565b600060208284031215610d1557610d14610b3c565b5b6000610d2384828501610cea565b91505092915050565b600080fd5b600080fd5b7f4e487b7100000000000000000000000000000000000000000000000000000000600052604160045260246000fd5b610d6e82610c19565b810181811067ffffffffffffffff82111715610d8d57610d8c610d36565b5b80604052505050565b6000610da0610b32565b9050610dac8282610d65565b919050565b600067ffffffffffffffff821115610dcc57610dcb610d36565b5b610dd582610c19565b9050602081019050919050565b82818337600083830152505050565b6000610e04610dff84610db1565b610d96565b905082815260208101848484011115610e2057610e1f610d31565b5b610e2b848285610de2565b509392505050565b600082601f830112610e4857610e47610d2c565b5b8135610e58848260208601610df1565b91505092915050565b600060208284031215610e7757610e76610b3c565b5b600082013567ffffffffffffffff811115610e9557610e94610b41565b5b610ea184828501610e33565b91505092915050565b60008060408385031215610ec157610ec0610b3c565b5b6000610ecf85828601610b67565b9250506020610ee085828601610b67565b9150509250929050565b60008115159050919050565b610eff81610eea565b82525050565b6000606082019050610f1a6000830186610ef6565b610f276020830185610ef6565b610f346040830184610ba9565b949350505050565b610f4581610cc1565b82525050565b6000602082019050610f606000830184610f3c565b92915050565b7f4e6f74207265676973746572656420766f746572000000000000000000000000600082015250565b6000610f9c601483610bde565b9150610fa782610f66565b602082019050919050565b60006020820190508181036000830152610fcb81610f8f565b9050919050565b7f416c726561647920766f74656400000000000000000000000000000000000000600082015250565b6000611008600d83610bde565b915061101382610fd2565b602082019050919050565b6000602082019050818103600083015261103781610ffb565b9050919050565b7f566f74696e67206e6f7420616374697665000000000000000000000000000000600082015250565b6000611074601183610bde565b915061107f8261103e565b602082019050919050565b600060208201905081810360008301526110a381611067565b9050919050565b7f496e76616c69642063616e646964617465000000000000000000000000000000600082015250565b60006110e0601183610bde565b91506110eb826110aa565b602082019050919050565b6000602082019050818103600083015261110f816110d3565b9050919050565b7f4e487b7100000000000000000000000000000000000000000000000000000000600052601160045260246000fd5b600061115082610b46565b91507fffffffffffffffffffffffffffffffffffffffffffffffffffffffffffffffff820361118257611181611116565b5b600182019050919050565b60006040820190506111a26000830185610f3c565b6111af6020830184610ba9565b9392505050565b7f4e487b7100000000000000000000000000000000000000000000000000000000600052602260045260246000fd5b600060028204905060018216806111fd57607f821691505b6020821081036112105761120f6111b6565b5b50919050565b7f4f6e6c792061646d696e2063616e20706572666f726d2074686973206163746960008201527f6f6e000000000000000000000000000000000000000000000000000000000000602082015250565b6000611272602283610bde565b915061127d82611216565b604082019050919050565b600060208201905081810360008301526112a181611265565b9050919050565b7f566f74657220616c726561647920726567697374657265640000000000000000600082015250565b60006112de601883610bde565b91506112e9826112a8565b602082019050919050565b6000602082019050818103600083015261130d816112d1565b9050919050565b60008190508160005260206000209050919050565b60006020601f8301049050919050565b600082821b905092915050565b6000600883026113767fffffffffffffffffffffffffffffffffffffffffffffffffffffffffffffffff82611339565b6113808683611339565b95508019841693508086168417925050509392505050565b6000819050919050565b60006113bd6113b86113b384610b46565b611398565b610b46565b9050919050565b6000819050919050565b6113d7836113a2565b6113eb6113e3826113c4565b848454611346565b825550505050565b600090565b6114006113f3565b61140b8184846113ce565b505050565b5b8181101561142f576114246000826113f8565b600181019050611411565b5050565b601f8211156114745761144581611314565b61144e84611329565b8101602085101561145d578190505b61147161146985611329565b830182611410565b50505b505050565b600082821c905092915050565b600061149760001984600802611479565b1980831691505092915050565b60006114b08383611486565b9150826002028217905092915050565b6114c982610bd3565b67ffffffffffffffff8111156114e2576114e1610d36565b5b6114ec82546111e5565b6114f7828285611433565b600060209050601f83116001811461152a5760008415611518578287015190505b61152285826114a4565b86555061158a565b601f19841661153886611314565b60005b828110156115605784890151825560018201915060208501945060208101905061153b565b8683101561157d5784890151611579601f891682611486565b8355505b6001600288020188555050505b505050505050565b7f496e76616c696420766f74696e6720706572696f640000000000000000000000600082015250565b60006115c8601583610bde565b91506115d382611592565b602082019050919050565b600060208201905081810360008301526115f7816115bb565b9050919050565b60006040820190506116136000830185610ba9565b6116206020830184610ba9565b939250505056fea2646970667358221220375348e256821abfd89ea315472ff51023d8275f0f657470e40e585485f59eef64736f6c63430008140033",
  "linkReferences": {},
  "deployedLinkReferences": {}
}